:020000040800F2
:1000000010050020450100088B140008E1130008CA
:10001000891400082F0200085D1900080000000084
:10002000000000000000000000000000AF14000805
:10003000B102000800000000AD140008B11400086F
:100040005F0100085F0100085F0100085F01000810
:100050005F0100085F0100085F0100085F01000800
:100060005F0100085F0100085F0100085F010008F0
:100070005F0100085F0100085F010008310200080D
:100080005F0100085F0100085F0100085F010008D0
:100090005F0100085F0100085F0100085F010008C0
:1000A0005F0100085F0100085F0100085F010008B0
:1000B0005F0100085F0100085F0100085F010008A0
:1000C0005F0100085F0100085F0100085F01000890
:1000D0005F0100080D1900085F0100085F010008BA
:1000E0005F0100085F0100085F0100085F01000870
:1000F0005F0100085F0100085F0100085F01000860
:100100005F0100085F0100085F0100085F0100084F
:100110005F0100085F0100085F0100085F0100083F
:100120005F0100085F0100085F0100085F0100082F
:10013000DFF80CD000F05AF8004800477D1C00089A
:10014000100500200648804706480047FEE7FEE706
:10015000FEE7FEE7FEE7FEE7FEE7FEE7FEE7FEE777
:100160002915000831010008202A04DB203A21FA71
:1001700002F00021704721FA02F3D040C2F12002C0
:1001800091400843194670472DE9F05F054600206D
:1001900092469B4688460646814640241BE02846F8
:1001A000414647462246FFF7DFFF53465A46C01AEC
:1001B000914110D311461846224600F029F82D1A15
:1001C00067EB01084F4622460120002100F020F88D
:1001D00017EB00094E41201EA4F10104DFDC484664
:1001E00031462A464346BDE8F09F0000064C074DC5
:1001F00006E0E06840F0010394E8070098471034F7
:10020000AC42F6D3FFF798FF241D0008441D0008F8
:10021000202A04DB203A00FA02F1002070479140C6
:10022000C2F1200320FA03F3194390407047FEE720
:10023000014800F0EFB80000CC00002038B5C26ED5
:10024000044610680068C0061CD5206F01684B6822
:10025000606E834209D84968401AA066104600F0D3
:10026000DEFE216F606E09684860E06E01680A6812
:1002700049680091B4F864108AB22146BDE838405C
:1002800001F002B838BD30B590F840500124AC40C0
:10029000C56B6C60046863604368102B036803D00F
:1002A00099600068C26030BD9A600068C16030BD6E
:1002B000704701680A6822F00E020A6001680A6845
:1002C00022F001020A6090F84020C36B012101FA7C
:1002D00002F25A6080F82110002180F820100846B0
:1002E000704700002DE9F05F90F8211000240229EA
:1002F00003D004218163012485E001680A6822F0AB
:100300000E020A6001680A6822F001020A603F4E8C
:100310003E4FB215DFF8F4C0DFF8F090DFF8ECA044
:10032000DFF8E8B0DFF8E4E00168783F1301150278
:10033000ACF1640CA9F15009AAF13C0AABF1280B0D
:10034000AEF1140E4FF48018B14227D9B9420ED045
:10035000614512D049451DD0514518D0594518D096
:10036000714501D1424615E0294EB14201D1012229
:1003700010E0274E1436B14201D110220AE0244E7B
:100380002836B14206D0224A3C32914201D11A4667
:1003900000E02A461E49091F0A602BE0B94213D02B
:1003A000614517D0494522D051451DD059451DD032
:1003B000714501D142461AE0B14202D14FF080723C
:1003C00015E0134EB14201D1012210E0104E143657
:1003D000B14201D110220AE00D4E2836B14206D0BA
:1003E0000B4A3C32914201D11A4600E02A460749A5
:1003F00080394A60012180F82110002180F8201006
:10040000416B01B188472046BDE8F09F8000024063
:10041000080402402DE9F05FC16B0A6801680B68AF
:10042000046C4FF0040808FA04F8844D844E854F9C
:10043000DFF814C2DFF81492DFF814A2DFF814B268
:10044000DFF814E218EA020F65D05FEA437862D55C
:100450000A68920603D40A6822F004020A60DFF8F0
:10046000F0814FF48062016808F11408130114024E
:10047000414524D9A9420DD0B1420FD0B9421AD07A
:10048000614515D0494515D0514501D1120312E0FF
:10049000594501D104220EE0714501D140220AE004
:1004A0006D4D1435A94206D06B4A2832914201D1D4
:1004B0001A4600E022466749091F0A6029E0A9425E
:1004C00013D0B14215D0B94220D061451BD0494567
:1004D0001BD0514502D14FF4800217E0414502D1B3
:1004E0004FF0806212E0594501D104220EE07145BF
:1004F00001D140220AE0584D1435A94206D0564A8F
:100500002832914201D11A4600E022464B4908396F
:100510004A60C16A71E04FF0020808FA04F818EA6C
:10052000020F70D05FEA83786DD50A68920606D410
:100530000A6822F00A020A60012180F82110DFF81F
:1005400010814FF40072016808F1140813011402BD
:10055000414524D9A9420DD0B1420FD0B9421AD099
:10056000614515D0494515D0514501D1120312E01E
:10057000594501D102220EE0714501D120220AE045
:10058000354D1435A94206D0334A2832914201D163
:100590001A4600E022462F49091F0A6029E0A942B5
:1005A00013D0B14215D0B94220D061451BD0494586
:1005B0001BD0514502D14FF4001217E0414502D142
:1005C0004FF0007212E0594501D102220EE0714550
:1005D00001D120220AE0204D1435A94206D01E4A3E
:1005E0002832914201D11A4600E0224613490839C7
:1005F0004A60002180F82010816A00291CD0BDE8E3
:10060000F05F0847FFE70825A540154214D01A07F8
:1006100012D50A6822F00E020A6090F84020C36BDF
:10062000012101FA02F25A60816380F82110002151
:1006300080F82010016BE0E7BDE8F09F0800024061
:100640001C000240300002404400024058000240BA
:100650006C000240080402401C04024030B560B146
:100660001C4A03681421934209D21B4A1A44B2FB64
:10067000F1F18900016419490AE0012030BD154AF1
:1006800052421A44B2FBF1F1890001641149083960
:10069000C163022180F821101A6843F6F0718A4381
:1006A000F0E901142143D0E902452C4321430469B8
:1006B0002143446921438469214311431960002186
:1006C00041628162C1620163416301224277017725
:1006D000084630BD08040240F8FFFDBF000002409C
:1006E00070B5044690F82000002501280CD00120A8
:1006F00084F8200094F821600020012E06D084F8B0
:1007000020000225284670BD022070BD022684F814
:100710002160A0632068066826F001060660204676
:10072000FFF7B1FDE06A00282068016802D041F0BF
:100730000E0106E021F0040101602068016841F02B
:100740000A0101602068016841F001010160D9E7F8
:100750002DE9F84FDFF8B8A100220AF1040B144686
:1007600001274FF00F090BF1040E00BF0B6807FAC9
:1007700004F52B40AB4274D1DFF898C14E68A6EB6C
:100780000C0866452BD00DDC032E34D005DC36B3C7
:10079000012E19D0022E2FD11BE0112E16D0122EB1
:1007A0002AD119E0B8F5881F19D006DCB8F5803FCA
:1007B00015D0B8F5801F1FD111E0B8F5001F0ED07D
:1007C000B8F5041F18D10AE0CA6815E0CA68121DFE
:1007D00012E0CA6808320FE0CA680C320CE08A687E
:1007E0002AB1012A4FF0080203D0456104E0042237
:1007F00002E0056100E00022FF2B01D8064601E07F
:1008000000F104064FEA840501D9A5F12005D6F8C8
:1008100000C009FA05F82CEA080C02FA05F54CEAC2
:10082000050CC6F800C04D68ED006AD53A4DAE69BA
:1008300046F00106AE61AD6924F0030605F001053E
:100840000095364D06EB050CDCF80850A6074FEA7C
:10085000167809FA08F6B543314EB04202D10026A7
:100860001AE04EE02F4EB04201D1012614E02E4E88
:10087000B04201D102260FE02C4EB04201D1032636
:100880000AE02B4EB04201D1042605E0294EB042C9
:1008900001D1052600E0062606FA08F62E43CCF81C
:1008A00008604D68DAF80060ED03554601D51E4337
:1008B00000E09E432E604D68AD0305D5DBF8006077
:1008C0001E43CBF8006004E0DBF800509D43CBF8FA
:1008D00000504D68DEF80060ED02754601D51E43FC
:1008E00000E09E432E604D68AD0205D5084D0C35E5
:1008F0002E681E432E6004E0054E0C3635689D437D
:100900003560641C102CFFF431AFBDE8F88F000097
:1009100000040140000011100010024000000140DE
:1009200000080140000C014000100140001401408B
:1009300000180140001C0140014880687047000019
:1009400000000020024881680278114481607047ED
:1009500000000020074810B5016841F01001016057
:10096000032000F09DF8002000F006F800F024F8C5
:10097000002010BD0020024070B50D4D04464FF41C
:100980007A712878B1FBF0F00A490968B1FBF0F000
:1009900000F02DFB48B9102C07D200222146501E32
:1009A00000F05EF800206C6070BD012070BD00009A
:1009B000000000200C000020214808B5816941F0AA
:1009C00001018161816901F001010091C16941F07A
:1009D0008051C161C06900F080500090032000F098
:1009E0005FF8002211466FF00B0000F039F800228A
:1009F00011466FF00A0000F033F8002211466FF044
:100A0000090000F02DF800221146501F00F028F8D0
:100A100000221146101F00F023F800221146901EFC
:100A200000F01EF800221146501E00F019F805488B
:100A3000416821F0E06141F00071416008BD0000B3
:100A4000001002400000014000F01F02012191400F
:100A50004009800000F1E020C0F80011704700005C
:100A6000F0B40E4B1B680C46C3F30223C3F1070519
:100A7000042D00D90425191D072901D2002300E007
:100A8000DB1E012606FA05F1491E214099409E40D1
:100A9000761E16403143F0BC00F0F8BC0CED00E0CF
:100AA000064900F0070208684FF6FF03184040EAC5
:100AB0000220034A10430860704700000CED00E07C
:100AC0000000FA052DE9F047DFF83C8105460E46A7
:100AD000D8F8000000F00700B0420CD2D8F800109F
:100AE00021F007013143C8F80010D8F8000000F0E9
:100AF0000700B04263D12878444C800705D5606870
:100B0000A96820F0F000084360602878C00745D04D
:100B10006868012816D02168022816D089070029A4
:100B20004DDA616821F0030101436160FFF704FFC2
:100B30006968074641F2883001290FD002298146B1
:100B400019D027E021688903E9E78901E7E700BFB9
:100B5000FFF7F2FEC11B494501D918E081466068E4
:100B6000C0F381000128F3D118E000BFFFF7E4FED5
:100B7000C11B49450BD86068C0F381000228F5D13C
:100B80000CE000BFFFF7D8FEC11B494502D9032086
:100B9000BDE8F087606810F00C0FF3D1D8F80010B2
:100BA000404601F00701B1420BD9016821F007016D
:100BB00031430160006800F00700B04201D001201D
:100BC000E6E72878400705D56068E96820F4E0602A
:100BD000084360602878000706D56068296920F41A
:100BE000605040EAC100606000F03CF86168084A6B
:100BF000C1F30311515CC840064908600020FFF7AB
:100C0000BBFE0020C4E700000020024000100240AC
:100C10000C1D00080C00002001480068704700000F
:100C20000C0000200448054900684968044AC1F3E3
:100C30000221515CC84070470C00002000100240A7
:100C40001C1D00080448054900684968044AC1F3AE
:100C5000C221515CC84070470C00002000100240C7
:100C60001C1D000812A185B00FC98DE80F0014A04B
:100C7000144A006804905168134801F00C03042BD7
:100C800010D0082B0ED1C1F38343C9031DF8030014
:100C90000AD5516804AAC1F34041515C0A4A504345
:100CA000B0FBF1F005B0704708494843FAE700008F
:100CB00002030405060708090A0B0C0D0E0F10109D
:100CC000010200000010024000127A0000093D00FD
:100CD0002DE9F84F04460078B94DC00748D0686840
:100CE000C0F38100012807D06868C0F381000228A2
:100CF00009D16868C00306D52868800338D56068C4
:100D000000286FD034E06068B0F5803F0BD010B1A0
:100D1000B0F5A02F11D0286820F480302860286812
:100D200020F4802002E0286840F480302860606869
:100D300088B1FFF701FE064609E0286840F48020EC
:100D40002860F0E7FFF7F8FD801B642875D8286855
:100D50008003F7D50CE0FFF7EFFD064605E000BF86
:100D6000FFF7EAFD801B6428F0D828688003F7D4D9
:100D70002078944E80074FF001094FF000083BD5D2
:100D8000686810F00C0F07D06868C0F38100022873
:100D900009D16868C00306D42868800714D5206983
:100DA00001281FD110E02069B0B1C6F80090FFF70C
:100DB000C3FD074605E000BFFFF7BEFDC01B0228CC
:100DC000C4D828688007F7D52868616920F0F80042
:100DD00040EAC10028600FE0C6F80080FFF7ACFDD4
:100DE000074606E0E9E000BFFFF7A6FDC01B0228AA
:100DF00023D828688007F7D4207800072CD57248BC
:100E0000A169D9B1C0F80090FFF796FD074604E04C
:100E1000FFF792FDC01B02280FD8686A8007F7D53C
:100E20006A484FF4FA510068B0FBF1F0009000BF3F
:100E30000098411E0091FAD20EE080E0C0F80080D8
:100E4000FFF77AFD074604E0FFF776FDC01B022896
:100E500075D8686A8007F7D42078400760D5E869BC
:100E60000027C00008D4E86940F08050E861E869D4
:100E7000012700F08050009055480168C90513D43F
:100E80000168834641F480710160FFF755FD824699
:100E900006E000BFFFF750FDA0EB0A0064284ED823
:100EA000DBF80000C005F5D5E06801280AD008B1DC
:100EB000052813D0286A20F001002862286A20F053
:100EC000040002E0286A40F001002862E06841F274
:100ED000883B98B1FFF730FD82460BE0286A40F06E
:100EE00004002862EEE700BFFFF726FDA0EB0A0131
:100EF00059455AD8286A8007F6D50CE0FFF71CFD43
:100F0000824605E0FFF718FDA0EB0A0159454CD8D1
:100F1000286A8007F6D41FB1E86920F08050E861A4
:100F2000E06988B36968C1F38101022945D00228CC
:100F3000C6F8608004D0FFF7FFFC044638E034E0D8
:100F4000FFF7FAFC074604E0FFF7F6FCC01B022897
:100F50002BD828688001F7D4206AB0F5803F05D1EE
:100F60006868A16820F4003008436860D4E908018B
:100F70000843696821F4741108436860C6F86090FA
:100F8000FFF7DAFC044606E015E000BFFFF7D4FCEB
:100F9000001B022809D828688001F7D50BE000BFA4
:100FA000FFF7CAFC001B022802D90320BDE8F88F16
:100FB00028688001F4D40020F8E70120F6E700005B
:100FC0000010024000004242800442420C00002017
:100FD000007000404FF0E0210428086903D020F0A1
:100FE00004000861704740F00400FAE7704710B54C
:100FF000401EB0F1807F01D3012010BD4FF0E024EE
:1010000060610F21601700F041FA0020A061072005
:101010002061002010BD10B5FFF7E8FF10BD70B5CE
:1010200004460068C16821F49071C160206841697C
:1010300021F001014161206841694FF00005490636
:1010400009D5416921F040014161606B18B14563E8
:10105000606BFFF72EF9E585202084F83A00002028
:1010600070BD704770B5026804461068D168536956
:1010700010F00F0F50D003F0010501F490763543C6
:101080005DD0C20705D0CA0503D5E26B42F001026C
:10109000E263420705D5DA0703D0E26B42F00202B1
:1010A000E263820705D5DA0703D0E26B42F004025F
:1010B000E263020705D5DA0703D0E26B42F00802CB
:1010C000E263E26B002A33D0800604D5880602D59D
:1010D000204600F0B4FA20684069E16BC0F380104C
:1010E000090700D428B3204600F092FA206841692D
:1010F00049061AD5416921F040014161606BA0B1F8
:101100001B494163606BFFF7EDF8002810D0606B5E
:10111000416BBDE870400847830610D58B060ED59D
:101120002046BDE8704000F08ABA2046FFF799FFDC
:1011300070BD2046FFF795FF0020E06370BD0306F9
:1011400006D50B0604D52046BDE8704000F07ABBFA
:101150004006F3D54806F1D5D168204621F040017C
:10116000D160202184F8391000F039F970BD0000F9
:101170007115000870B5040004D094F839000025FA
:1011800010B106E0012070BD84F83850204600F010
:1011900023F8242084F839002068C16821F4005124
:1011A000C160204600F096FA2068016921F4904160
:1011B00001612068416921F02A0141612068C1680C
:1011C00041F40051C160E563202084F8390084F8BF
:1011D0003A00002070BD000070B506460068214945
:1011E00086B088423BD12048816941F480418161C9
:1011F00080691E4C00F4804004904FF40070009011
:10120000022001900320039069462046FFF7A0FAD0
:1012100000252015CDE90005694620460295FFF717
:1012200097FA144C1248C4E900058020C4E9025022
:1012300020202561C4E905502046E561FFF70EFA3C
:1012400018B16F210CA000F08CFB746300221146D2
:1012500025206662FFF704FC2520FFF7F5FB06B0AA
:1012600070BD00000038014000100240000801403D
:1012700058000240CC0000202E2E2F5372632F7591
:10128000736172742E630000F8B5044690F83A005A
:1012900020283CD1C1B3BAB394F83800012836D025
:1012A000012084F83800A162A2850025E563222090
:1012B00084F83A00636B17489862636B1648D862EB
:1012C000636B16481863606B134645630846666B8C
:1012D000216802463046091DFFF702FA20680168BE
:1012E0004168009184F83850C16841F48071C16050
:1012F0002068416941F0010141612068416941F084
:10130000400141610020F8BDFFE70120FBE702201A
:10131000F9E70000CB150008071600088115000842
:10132000704770472DE9F843044690F839001F468E
:1013300016460D46202850D1A5B19EB194F838002C
:1013400001284AD0012084F838004FF00008C4F882
:101350003C80212084F83900FFF7EEFAA68481460C
:10136000E68426E00120BDE8F883E08C401EE0849E
:10137000A0684B46B0F5805F4FF000024FF080014F
:101380002046009703D000F08EFAE8B90DE000F097
:101390008AFAC8B928882168C0F308004860206923
:1013A00008B16D1C05E0AD1C03E0216815F8010BC8
:1013B0004860E08C0028D8D14B46002240212046CE
:1013C000009700F070FA08B10320CCE7202084F8E1
:1013D000390084F838800020C5E70220C3E7704751
:1013E000FEE70000094808B5416941F0010141618B
:1013F0004069002200F00100009011460F20FFF725
:101400002FFBBDE808400F20FFF71EBB0010024075
:10141000094808B5816941F020018161816901F0C5
:1014200020010091816941F004018161806900F02F
:101430000400009008BD0000001002400D4810B5E7
:101440000B4901604FF4E1314160002181600C22C1
:10145000C160C0E904128161C161FFF78BFE002801
:1014600005D0BDE81040442103A000F07ABA10BDB9
:10147000003801408C0000202E2E2F5372632F75F0
:10148000736172742E630000FEE770470907090E4E
:10149000002806DA00F00F0000F1E02080F8141DAB
:1014A000704700F1E02080F80014704770477047E3
:1014B00010B5FFF747FABDE81040FFF7ACBD30B5F7
:1014C0008FB001210804CDE9001000240294022508
:1014D0000491CDE907504FF4E01009906846FFF7FA
:1014E000F7FB00B1FEE70F20CDE90A054FF480605D
:1014F000CDE90C4002210AA80E94FFF7E3FA00B1EF
:10150000FEE7FFF789FB4FF47A71B0FBF1F0FFF7CC
:101510006EFD0420FFF75EFD00221146501EFFF70E
:101520009FFA0FB030BD00000D48016841F0010185
:10153000016041680B4A1140416001680A4A11404C
:101540000160016821F480210160416821F4FE01FD
:1015500041604FF41F0181600449C0030860704777
:10156000001002400000FFF8FFFFF6FE08ED00E06B
:1015700010B5406A0021C185C184FFF772FD10BD1E
:1015800070B5446A2068406994F83910C0F3C010FF
:101590000025212904D118B1E584204600F046F841
:1015A0002068406994F83A10C0F38010222904D1D1
:1015B00018B1E585204600F02BF8E06B40F01000F4
:1015C000E0632046FFF74DFD70BD10B50146406A4F
:1015D00009680968890613D40021C1850168CA68B1
:1015E00022F48072CA6001684A6922F001024A61ED
:1015F00001684A6922F040024A61202180F83A10CD
:10160000FFF78EFE10BD10B5406AFFF78AFE10BDD1
:101610000168CA6822F49072CA6001684A6922F0BF
:1016200001024A61202180F83A1070470168CA68B7
:1016300022F0C002CA60202180F83910704710B52E
:1016400090F83A10222901D0022010BD8168B1F52E
:10165000805F11D00169002901681FD0496801F03D
:101660007F03816A4A1C82620B70C18D491E090486
:10167000090CC18518D02BE00269816A002A026832
:10168000526805D0D2B20A80816A491C8162ECE7B7
:10169000C2F308020A80816A891CF7E74A68816AF6
:1016A0004B1C83620A70E0E70168CA6822F02002DE
:1016B000CA600168CA6822F48072CA6001684A6917
:1016C00022F001024A61202180F83A10FFF728FE3B
:1016D000002010BD2DE9F041044600680169E26870
:1016E00021F44051114301612169A06808436169F7
:1016F00008432168CA6841F20C639A430243CA60F6
:1017000020684169A26921F44071114341614C494B
:1017100020686425322688423CD1FFF793FA00EB1B
:10172000C00101EB001061688900B0FBF1F7FFF721
:1017300089FA00EBC00101EB00106168B046890036
:10174000B0FBF1F0B0FBF5F06FF01801484307EB88
:10175000800106EB0110B0FBF5F000F0F006FFF79A
:1017600071FA00EBC00101EB001061688900B0FB69
:10177000F1F0B0FBF5F006EB0016FFF763FA00EBB3
:10178000C00101EB001061688900B0FBF1F7FFF7C1
:1017900059FA3BE0FFF746FA00EBC00101EB0010FD
:1017A00061688900B0FBF1F7FFF73CFA00EBC0017C
:1017B00001EB00106168B0468900B0FBF1F0B0FBAE
:1017C000F5F06FF01801484307EB800106EB0110BC
:1017D000B0FBF5F000F0F006FFF724FA00EBC001D3
:1017E00001EB001061688900B0FBF1F0B0FBF5F08F
:1017F00006EB0016FFF716FA00EBC00101EB001034
:1018000061688900B0FBF1F7FFF70CFA00EBC0014B
:1018100001EB001061688900B0FBF1F0B0FBF5F05E
:101820006FF01801484307EB800108EB0110B0FB93
:10183000F5F0216800F00F0030448860BDE8F081C9
:101840000038014090F83910212901D0022070475A
:101850008168B1F5805F016A0BD04A1C02620268A0
:1018600009785160C18C491E0904090CC1840ED04D
:1018700017E009880268C1F3080151600169002975
:10188000016A02D0491C0162ECE7891CFBE7016890
:10189000CA6822F08002CA600068C16841F0400155
:1018A000C160002070472DE9F041984617460E466A
:1018B0000446069D1DE0681C1BD02DB1FFF73CF8C7
:1018C000A0EB0800A84214D92068C16821F4D071A7
:1018D000C1602068416921F001014161202084F844
:1018E000390084F83A00002084F838000320BDE86D
:1018F000F0812068006836EA000004D00020B84279
:10190000D9D00020F3E70120F9E7000010B5044822
:1019100000F025F8BDE810400248FFF7A3BB000027
:10192000140000208C00002038B51446642204F115
:101930006C05094B626685E80B002146FFF7A4FCA5
:10194000E06E0068C16841F01001C160E06E00689F
:1019500001684068009038BD5F190008FEE7FEF797
:101960006DBCFEE70FB4054B10B503A9044A0298FD
:1019700000F018F810BC5DF814FB0000651C0008AE
:101980001000002002E008C8121F08C1002AFAD186
:1019900070477047002001E001C1121F002AFBD1EF
:1019A000704700002DE9FF4F8DB09B460F4604465F
:1019B000002606E025280BD05A460F999047641C54
:1019C000761C20780028F5D111B03046BDE8F08FA4
:1019D0000025A8460122984900E0054314F8013F7C
:1019E000203B02FA03F00842F7D120782E2817D1C5
:1019F00014F8010F45F004052A280ED06FF02F02CD
:101A00002078A0F1300109290AD808EB880102EBFF
:101A1000410100EB0108641CF2E757F8048B641CD9
:101A200020786C280DD004DC4C2812D06A2811D103
:101A300004E074280DD07A280CD10AE045F4001592
:101A400007E0617845F48015814202D1641C05F5F8
:101A50008015641C2278692A45D008DC002AB3D09E
:101A6000582A69D0632A10D0642A08D13BE0702A32
:101A700067D0732A13D0752A5CD0782A5CD01046C0
:101A80005A460F999047761CD3E017F8040B8DF84F
:101A9000000000208DF80100E946012003E057F81E
:101AA000049B4FF0FF3069074FF0000501D40AE0B6
:101AB0006D1C45450DDA8542FADB19F80510002941
:101AC000F6D106E06D1C8542FCDB19F805100029F3
:101AD000F8D12E4404E019F8010B5A460F999047AB
:101AE0006D1EF8D2A5E00A200021CDE90801C5F35A
:101AF000025002280DD001CFC117031E71F100035F
:101B00000DDA4FF0000CD0EB0C006CEB01012D2333
:101B100008E0FF1D27F00707F7E80201EDE72B05B6
:101B200004D52B238DF8283001233BE0EB0739D077
:101B30002023F7E70A2000E010200021CDE908016A
:101B400007E01020002145F00405CDE908014FF021
:101B50000808C5F3025002280FD001CF00214FF032
:101B6000000A2B071FD5702A0DD0DDE908C38CF0C1
:101B7000100C5CEA030C0CD015E0FF1D27F00707E2
:101B8000F7E80201EBE740228DF828204FF0010A28
:101B90000BE050EA010306D030238DF828308DF891
:101BA000292002239A46582A04D024A20DF12009A4
:101BB0000B9209E026A2F9E7DDE90823FEF7E4FA33
:101BC0000B9B9B5C09F8013D50EA0102F4D1ADEB9F
:101BD000090020300890680701D44FF001080899E7
:101BE000884502DDA8EB010000E0002080460025CA
:101BF00006E00AA85A46405D0F9990476D1C761C76
:101C00005545F6DB04E030205A460F999047761C84
:101C1000B8F10001A8F10108F5DC05E019F8010BA5
:101C20005A460F999047761C0899481E089000293B
:101C3000F4DC641CC5E600000928010030313233B1
:101C400034353637383961626364656600000000F8
:101C500030313233343536373839414243444546E2
:101C60000000000013B54FF6FF73012269460248D9
:101C7000FFF758FB00981CBD8C000020FEF76AFEA1
:101C8000FFF71DFCFFF7C4FBFFF7ACFBFFF7D6FB2C
:101C90000FA0FFF767FE104A10491148FFF744FEF6
:101CA0000D4D0026A96E0029FCD000240DA0FFF7E1
:101CB00059FE05E0295D12A0FFF754FE641CA4B292
:101CC000A86EA042F6D810A0FFF74CFEAE66E9E77A
:101CD00073746172743A0A0014000020CC00002072
:101CE0008C0000200D0ABDD3CAD5B5BDCAFDBEDD2E
:101CF000B3A4B6C820A3BA2025640D0A00000000D2
:101D000030782578200000000D0A00000000000057
:101D1000000000000102030406070809000000009B
:101D200001020304441D000800000020140000000C
:101D300084190008581D000814000020FC0400004D
:101D400094190008010000001000000000000000CD
:081D500000A24A04000000009B
:0400000508000131BD
:00000001FF
